{
  "contractName": "Odpid",
  "abi": [
    {
      "constant": true,
      "inputs": [
        {
          "name": "",
          "type": "address"
        },
        {
          "name": "",
          "type": "uint256"
        }
      ],
      "name": "uuids",
      "outputs": [
        {
          "name": "_uuid",
          "type": "string"
        },
        {
          "name": "_type",
          "type": "string"
        },
        {
          "name": "_dataset",
          "type": "string"
        },
        {
          "name": "_address",
          "type": "address"
        }
      ],
      "payable": false,
      "stateMutability": "view",
      "type": "function"
    },
    {
      "constant": false,
      "inputs": [
        {
          "name": "_uuid",
          "type": "string"
        },
        {
          "name": "_type",
          "type": "string"
        },
        {
          "name": "_dataset",
          "type": "string"
        }
      ],
      "name": "addUDID",
      "outputs": [],
      "payable": true,
      "stateMutability": "payable",
      "type": "function"
    },
    {
      "constant": true,
      "inputs": [
        {
          "name": "index",
          "type": "uint256"
        }
      ],
      "name": "getUDID",
      "outputs": [
        {
          "name": "_uuid",
          "type": "string"
        }
      ],
      "payable": false,
      "stateMutability": "view",
      "type": "function"
    },
    {
      "constant": true,
      "inputs": [
        {
          "name": "index",
          "type": "uint256"
        }
      ],
      "name": "getType",
      "outputs": [
        {
          "name": "_uuid",
          "type": "string"
        }
      ],
      "payable": false,
      "stateMutability": "view",
      "type": "function"
    },
    {
      "constant": true,
      "inputs": [
        {
          "name": "index",
          "type": "uint256"
        }
      ],
      "name": "getDataset",
      "outputs": [
        {
          "name": "_uuid",
          "type": "string"
        }
      ],
      "payable": false,
      "stateMutability": "view",
      "type": "function"
    },
    {
      "constant": true,
      "inputs": [
        {
          "name": "index",
          "type": "uint256"
        }
      ],
      "name": "getDetails",
      "outputs": [
        {
          "name": "_uuid",
          "type": "string"
        },
        {
          "name": "_type",
          "type": "string"
        },
        {
          "name": "_dataset",
          "type": "string"
        }
      ],
      "payable": false,
      "stateMutability": "view",
      "type": "function"
    },
    {
      "constant": true,
      "inputs": [],
      "name": "getNumberOfDataset",
      "outputs": [
        {
          "name": "count",
          "type": "uint256"
        }
      ],
      "payable": false,
      "stateMutability": "view",
      "type": "function"
    },
    {
      "constant": true,
      "inputs": [
        {
          "name": "_address",
          "type": "address"
        },
        {
          "name": "index",
          "type": "uint256"
        }
      ],
      "name": "getUDIDofAddress",
      "outputs": [
        {
          "name": "_uuid",
          "type": "string"
        }
      ],
      "payable": false,
      "stateMutability": "view",
      "type": "function"
    },
    {
      "constant": true,
      "inputs": [
        {
          "name": "_address",
          "type": "address"
        },
        {
          "name": "index",
          "type": "uint256"
        }
      ],
      "name": "getTypeofAddress",
      "outputs": [
        {
          "name": "_uuid",
          "type": "string"
        }
      ],
      "payable": false,
      "stateMutability": "view",
      "type": "function"
    },
    {
      "constant": true,
      "inputs": [
        {
          "name": "_address",
          "type": "address"
        },
        {
          "name": "index",
          "type": "uint256"
        }
      ],
      "name": "getDatasetofAddress",
      "outputs": [
        {
          "name": "_uuid",
          "type": "string"
        }
      ],
      "payable": false,
      "stateMutability": "view",
      "type": "function"
    },
    {
      "constant": true,
      "inputs": [
        {
          "name": "_address",
          "type": "address"
        },
        {
          "name": "index",
          "type": "uint256"
        }
      ],
      "name": "getDetailsofAddress",
      "outputs": [
        {
          "name": "_uuid",
          "type": "string"
        },
        {
          "name": "_type",
          "type": "string"
        },
        {
          "name": "_dataset",
          "type": "string"
        }
      ],
      "payable": false,
      "stateMutability": "view",
      "type": "function"
    },
    {
      "constant": true,
      "inputs": [
        {
          "name": "_address",
          "type": "address"
        }
      ],
      "name": "getNumberOfDatasetofAddress",
      "outputs": [
        {
          "name": "count",
          "type": "uint256"
        }
      ],
      "payable": false,
      "stateMutability": "view",
      "type": "function"
    }
  ],
  "bytecode": "0x6060604052341561000f57600080fd5b611a3c8061001e6000396000f300606060405236156100b8576000357c0100000000000000000000000000000000000000000000000000000000900463ffffffff1680630665fa70146100bd5780634036ab78146100e65780635a4f512c14610182578063754bce8c1461023d57806389dec0ce146102d957806397666bc21461046c578063acf7690e14610527578063b93a89f7146105e2578063c05c82ae14610756578063cc03156d1461082e578063eb18408614610a4b578063ee00422114610a98575b600080fd5b34156100c857600080fd5b6100d0610b34565b6040518082815260200191505060405180910390f35b34156100f157600080fd5b6101076004808035906020019091905050610b7d565b6040518080602001828103825283818151815260200191508051906020019080838360005b8381101561014757808201518184015260208101905061012c565b50505050905090810190601f1680156101745780820380516001836020036101000a031916815260200191505b509250505060405180910390f35b341561018d57600080fd5b6101c2600480803573ffffffffffffffffffffffffffffffffffffffff16906020019091908035906020019091905050610c87565b6040518080602001828103825283818151815260200191508051906020019080838360005b838110156102025780820151818401526020810190506101e7565b50505050905090810190601f16801561022f5780820380516001836020036101000a031916815260200191505b509250505060405180910390f35b341561024857600080fd5b61025e6004808035906020019091905050610d92565b6040518080602001828103825283818151815260200191508051906020019080838360005b8381101561029e578082015181840152602081019050610283565b50505050905090810190601f1680156102cb5780820380516001836020036101000a031916815260200191505b509250505060405180910390f35b34156102e457600080fd5b610319600480803573ffffffffffffffffffffffffffffffffffffffff16906020019091908035906020019091905050610e9c565b60405180806020018060200180602001848103845287818151815260200191508051906020019080838360005b83811015610361578082015181840152602081019050610346565b50505050905090810190601f16801561038e5780820380516001836020036101000a031916815260200191505b50848103835286818151815260200191508051906020019080838360005b838110156103c75780820151818401526020810190506103ac565b50505050905090810190601f1680156103f45780820380516001836020036101000a031916815260200191505b50848103825285818151815260200191508051906020019080838360005b8381101561042d578082015181840152602081019050610412565b50505050905090810190601f16801561045a5780820380516001836020036101000a031916815260200191505b50965050505050505060405180910390f35b341561047757600080fd5b6104ac600480803573ffffffffffffffffffffffffffffffffffffffff169060200190919080359060200190919050506110f6565b6040518080602001828103825283818151815260200191508051906020019080838360005b838110156104ec5780820151818401526020810190506104d1565b50505050905090810190601f1680156105195780820380516001836020036101000a031916815260200191505b509250505060405180910390f35b341561053257600080fd5b610567600480803573ffffffffffffffffffffffffffffffffffffffff16906020019091908035906020019091905050611201565b6040518080602001828103825283818151815260200191508051906020019080838360005b838110156105a757808201518184015260208101905061058c565b50505050905090810190601f1680156105d45780820380516001836020036101000a031916815260200191505b509250505060405180910390f35b34156105ed57600080fd5b610603600480803590602001909190505061130c565b60405180806020018060200180602001848103845287818151815260200191508051906020019080838360005b8381101561064b578082015181840152602081019050610630565b50505050905090810190601f1680156106785780820380516001836020036101000a031916815260200191505b50848103835286818151815260200191508051906020019080838360005b838110156106b1578082015181840152602081019050610696565b50505050905090810190601f1680156106de5780820380516001836020036101000a031916815260200191505b50848103825285818151815260200191508051906020019080838360005b838110156107175780820151818401526020810190506106fc565b50505050905090810190601f1680156107445780820380516001836020036101000a031916815260200191505b50965050505050505060405180910390f35b61082c600480803590602001908201803590602001908080601f0160208091040260200160405190810160405280939291908181526020018383808284378201915050505050509190803590602001908201803590602001908080601f0160208091040260200160405190810160405280939291908181526020018383808284378201915050505050509190803590602001908201803590602001908080601f01602080910402602001604051908101604052809392919081815260200183838082843782019150505050505091905050611566565b005b341561083957600080fd5b61086e600480803573ffffffffffffffffffffffffffffffffffffffff169060200190919080359060200190919050506116a9565b604051808060200180602001806020018573ffffffffffffffffffffffffffffffffffffffff1673ffffffffffffffffffffffffffffffffffffffff1681526020018481038452888181546001816001161561010002031660029004815260200191508054600181600116156101000203166002900480156109315780601f1061090657610100808354040283529160200191610931565b820191906000526020600020905b81548152906001019060200180831161091457829003601f168201915b50508481038352878181546001816001161561010002031660029004815260200191508054600181600116156101000203166002900480156109b45780601f10610989576101008083540402835291602001916109b4565b820191906000526020600020905b81548152906001019060200180831161099757829003601f168201915b5050848103825286818154600181600116156101000203166002900481526020019150805460018160011615610100020316600290048015610a375780601f10610a0c57610100808354040283529160200191610a37565b820191906000526020600020905b815481529060010190602001808311610a1a57829003601f168201915b505097505050505050505060405180910390f35b3415610a5657600080fd5b610a82600480803573ffffffffffffffffffffffffffffffffffffffff16906020019091905050611712565b6040518082815260200191505060405180910390f35b3415610aa357600080fd5b610ab9600480803590602001909190505061175d565b6040518080602001828103825283818151815260200191508051906020019080838360005b83811015610af9578082015181840152602081019050610ade565b50505050905090810190601f168015610b265780820380516001836020036101000a031916815260200191505b509250505060405180910390f35b60008060003373ffffffffffffffffffffffffffffffffffffffff1673ffffffffffffffffffffffffffffffffffffffff16815260200190815260200160002080549050905090565b610b85611867565b60008060003373ffffffffffffffffffffffffffffffffffffffff1673ffffffffffffffffffffffffffffffffffffffff16815260200190815260200160002083815481101515610bd257fe5b90600052602060002090600402019050806001018054600181600116156101000203166002900480601f016020809104026020016040519081016040528092919081815260200182805460018160011615610100020316600290048015610c7a5780601f10610c4f57610100808354040283529160200191610c7a565b820191906000526020600020905b815481529060010190602001808311610c5d57829003601f168201915b5050505050915050919050565b610c8f611867565b60008060008573ffffffffffffffffffffffffffffffffffffffff1673ffffffffffffffffffffffffffffffffffffffff16815260200190815260200160002083815481101515610cdc57fe5b90600052602060002090600402019050806001018054600181600116156101000203166002900480601f016020809104026020016040519081016040528092919081815260200182805460018160011615610100020316600290048015610d845780601f10610d5957610100808354040283529160200191610d84565b820191906000526020600020905b815481529060010190602001808311610d6757829003601f168201915b505050505091505092915050565b610d9a611867565b60008060003373ffffffffffffffffffffffffffffffffffffffff1673ffffffffffffffffffffffffffffffffffffffff16815260200190815260200160002083815481101515610de757fe5b90600052602060002090600402019050806000018054600181600116156101000203166002900480601f016020809104026020016040519081016040528092919081815260200182805460018160011615610100020316600290048015610e8f5780601f10610e6457610100808354040283529160200191610e8f565b820191906000526020600020905b815481529060010190602001808311610e7257829003601f168201915b5050505050915050919050565b610ea4611867565b610eac611867565b610eb4611867565b60008060008773ffffffffffffffffffffffffffffffffffffffff1673ffffffffffffffffffffffffffffffffffffffff16815260200190815260200160002085815481101515610f0157fe5b90600052602060002090600402019050806000018054600181600116156101000203166002900480601f016020809104026020016040519081016040528092919081815260200182805460018160011615610100020316600290048015610fa95780601f10610f7e57610100808354040283529160200191610fa9565b820191906000526020600020905b815481529060010190602001808311610f8c57829003601f168201915b50505050509350806001018054600181600116156101000203166002900480601f0160208091040260200160405190810160405280929190818152602001828054600181600116156101000203166002900480156110485780601f1061101d57610100808354040283529160200191611048565b820191906000526020600020905b81548152906001019060200180831161102b57829003601f168201915b50505050509250806002018054600181600116156101000203166002900480601f0160208091040260200160405190810160405280929190818152602001828054600181600116156101000203166002900480156110e75780601f106110bc576101008083540402835291602001916110e7565b820191906000526020600020905b8154815290600101906020018083116110ca57829003601f168201915b50505050509150509250925092565b6110fe611867565b60008060008573ffffffffffffffffffffffffffffffffffffffff1673ffffffffffffffffffffffffffffffffffffffff1681526020019081526020016000208381548110151561114b57fe5b90600052602060002090600402019050806002018054600181600116156101000203166002900480601f0160208091040260200160405190810160405280929190818152602001828054600181600116156101000203166002900480156111f35780601f106111c8576101008083540402835291602001916111f3565b820191906000526020600020905b8154815290600101906020018083116111d657829003601f168201915b505050505091505092915050565b611209611867565b60008060008573ffffffffffffffffffffffffffffffffffffffff1673ffffffffffffffffffffffffffffffffffffffff1681526020019081526020016000208381548110151561125657fe5b90600052602060002090600402019050806000018054600181600116156101000203166002900480601f0160208091040260200160405190810160405280929190818152602001828054600181600116156101000203166002900480156112fe5780601f106112d3576101008083540402835291602001916112fe565b820191906000526020600020905b8154815290600101906020018083116112e157829003601f168201915b505050505091505092915050565b611314611867565b61131c611867565b611324611867565b60008060003373ffffffffffffffffffffffffffffffffffffffff1673ffffffffffffffffffffffffffffffffffffffff1681526020019081526020016000208581548110151561137157fe5b90600052602060002090600402019050806000018054600181600116156101000203166002900480601f0160208091040260200160405190810160405280929190818152602001828054600181600116156101000203166002900480156114195780601f106113ee57610100808354040283529160200191611419565b820191906000526020600020905b8154815290600101906020018083116113fc57829003601f168201915b50505050509350806001018054600181600116156101000203166002900480601f0160208091040260200160405190810160405280929190818152602001828054600181600116156101000203166002900480156114b85780601f1061148d576101008083540402835291602001916114b8565b820191906000526020600020905b81548152906001019060200180831161149b57829003601f168201915b50505050509250806002018054600181600116156101000203166002900480601f0160208091040260200160405190810160405280929190818152602001828054600181600116156101000203166002900480156115575780601f1061152c57610100808354040283529160200191611557565b820191906000526020600020905b81548152906001019060200180831161153a57829003601f168201915b50505050509150509193909250565b6000803373ffffffffffffffffffffffffffffffffffffffff1673ffffffffffffffffffffffffffffffffffffffff16815260200190815260200160002080548060010182816115b6919061187b565b916000526020600020906004020160006080604051908101604052808781526020018681526020018581526020013373ffffffffffffffffffffffffffffffffffffffff168152509091909150600082015181600001908051906020019061161f9291906118ad565b50602082015181600101908051906020019061163c9291906118ad565b5060408201518160020190805190602001906116599291906118ad565b5060608201518160030160006101000a81548173ffffffffffffffffffffffffffffffffffffffff021916908373ffffffffffffffffffffffffffffffffffffffff160217905550505050505050565b6000602052816000526040600020818154811015156116c457fe5b9060005260206000209060040201600091509150508060000190806001019080600201908060030160009054906101000a900473ffffffffffffffffffffffffffffffffffffffff16905084565b60008060008373ffffffffffffffffffffffffffffffffffffffff1673ffffffffffffffffffffffffffffffffffffffff168152602001908152602001600020805490509050919050565b611765611867565b60008060003373ffffffffffffffffffffffffffffffffffffffff1673ffffffffffffffffffffffffffffffffffffffff168152602001908152602001600020838154811015156117b257fe5b90600052602060002090600402019050806002018054600181600116156101000203166002900480601f01602080910402602001604051908101604052809291908181526020018280546001816001161561010002031660029004801561185a5780601f1061182f5761010080835404028352916020019161185a565b820191906000526020600020905b81548152906001019060200180831161183d57829003601f168201915b5050505050915050919050565b602060405190810160405280600081525090565b8154818355818115116118a8576004028160040283600052602060002091820191016118a7919061192d565b5b505050565b828054600181600116156101000203166002900490600052602060002090601f016020900481019282601f106118ee57805160ff191683800117855561191c565b8280016001018555821561191c579182015b8281111561191b578251825591602001919060010190611900565b5b50905061192991906119a3565b5090565b6119a091905b8082111561199c576000808201600061194c91906119c8565b60018201600061195c91906119c8565b60028201600061196c91906119c8565b6003820160006101000a81549073ffffffffffffffffffffffffffffffffffffffff021916905550600401611933565b5090565b90565b6119c591905b808211156119c15760008160009055506001016119a9565b5090565b90565b50805460018160011615610100020316600290046000825580601f106119ee5750611a0d565b601f016020900490600052602060002090810190611a0c91906119a3565b5b505600a165627a7a7230582043fa586545fd2c5a359e63b43caed9b7df0d8c3c65892437af45672def3263ec0029",
  "source": "pragma solidity ^0.4.17;\n\ncontract Odpid {\n  struct uuid_struct {\n        string _uuid;\n        string _type;\n        string _dataset;\n        address _address;\n    }\n\n    mapping (address => uuid_struct[]) public uuids;\n    // event UDIDCreated(string _uuid, string _type, string _dataset, address _address);\n\n    function addUDID(string _uuid, string _type, string _dataset) payable public {\n            uuids[msg.sender].push(uuid_struct(_uuid,_type,_dataset, msg.sender));\n            // emit UDIDCreated(_uuid, _type, _dataset, msg.sender);\n    }\n    \n    function getUDID(uint index) public view returns(string _uuid) {\n        uuid_struct storage u = uuids[msg.sender][index];\n        _uuid = u._uuid;\n    }\n    \n    function getType(uint index) public view returns(string _uuid) {\n        uuid_struct storage u = uuids[msg.sender][index];\n        _uuid = u._type;\n    }\n    \n    function getDataset(uint index) public view returns(string _uuid) {\n        uuid_struct storage u = uuids[msg.sender][index];\n        _uuid = u._dataset;\n    }\n    \n    function getDetails(uint index) public view returns(string _uuid, string _type, string _dataset) {\n        uuid_struct storage u = uuids[msg.sender][index];\n        _uuid = u._uuid;\n        _type = u._type;\n        _dataset = u._dataset;\n    }\n    \n    function getNumberOfDataset() public view returns (uint count) {\n        count = uuids[msg.sender].length;\n    }\n\n    function getUDIDofAddress(address _address, uint index) public view returns(string _uuid) {\n        uuid_struct storage u = uuids[_address][index];\n        _uuid = u._uuid;\n    }\n    \n    function getTypeofAddress(address _address, uint index) public view returns(string _uuid) {\n        uuid_struct storage u = uuids[_address][index];\n        _uuid = u._type;\n    }\n    \n    function getDatasetofAddress(address _address, uint index) public view returns(string _uuid) {\n        uuid_struct storage u = uuids[_address][index];\n        _uuid = u._dataset;\n    }\n    \n    function getDetailsofAddress(address _address, uint index) public view returns(string _uuid, string _type, string _dataset) {\n        uuid_struct storage u = uuids[_address][index];\n        _uuid = u._uuid;\n        _type = u._type;\n        _dataset = u._dataset;\n    }\n    \n    function getNumberOfDatasetofAddress(address _address) public view returns (uint count) {\n        count = uuids[_address].length;\n    }\n}",
  "sourcePath": "/home/hsi/go/src/github.com/hyperledger/odpid_contract/contracts/Odpid.sol",
  "compiler": {
    "name": "solc",
    "version": "0.4.17+commit.bdeb9e52.Emscripten.clang"
  },
  "schemaVersion": "3.0.11",
  "updatedAt": "2019-08-14T11:03:33.125Z",
  "devdoc": {
    "methods": {}
  },
  "userdoc": {
    "methods": {}
  }
}